:100000000C94DE000C94FB000C94FB000C94FB00A1
:100010000C94FB000C94FB000C94FB000C94FB0074
:100020000C94FB000C94FB000C94FB000C94FB0064
:100030000C94FB000C94FB000C94FB000C94FB0054
:100040000C9445030C94FB000C94FB000C94FB00F7
:100050000C94FB000C94FB000C94FB000C94FB0034
:100060000C94FB000C94FB0000407A10F35A00A0A3
:10007000724E18090010A5D4E80000E87648170071
:1000800000E40B54020000CA9A3B000000E1F505B1
:10009000000080969800000040420F000000A086FB
:1000A00001000000102700000000E803000000002D
:1000B0006400000000000A000000000001000000D1
:1000C00000002C76D888DC674F0823DFC1DFAE59EB
:1000D000E1B1B796E5E3E453C63AE651997696E87E
:1000E000E6C28426EB898C9B62ED407C6FFCEFBC02
:1000F0009C9F40F2BAA56FA5F490055A2AF75C932D
:100100006B6CF9676DC11BFCE0E40D47FEF520E662
:10011000B500D0ED902E0300943577050080841E45
:10012000080000204E0A000000C80C333333330FA0
:10013000986E12831141EF8D2114893BE65516CF3D
:10014000FEE6DB18D1844B381BF77C1D901DA4BB49
:10015000E424203284725E228100C9F124ECA1E5FE
:100160003D2700000000240027002A0000000000B6
:10017000250028002B000000000023002600290095
:10018000040404040404040402020202020203033D
:100190000303030301020408102040800102040845
:1001A00010200102040810200000000800020100D5
:1001B00000030407000000000000000011241FBE1F
:1001C000CFEFD8E0DEBFCDBF21E0A8E3B1E001C0B2
:1001D0001D92A735B207E1F711E0A0E0B1E0E8EC2D
:1001E000FBE102C005900D92A833B107D9F70E9438
:1001F0008F030C94E20D0C940000833081F028F4FE
:10020000813099F08230A9F008958730A9F08830C4
:10021000C9F08430B1F4809180008F7D03C080915B
:1002200080008F7780938000089584B58F7784BD98
:10023000089584B58F7DFBCF8091B0008F77809338
:10024000B00008958091B0008F7DF9CF1F93CF93B8
:10025000DF93282F30E0F901E855FE4F8491F90132
:10026000EC56FE4FD491F901E058FE4FC491CC23D7
:10027000A9F0162F81110E94FD00EC2FF0E0EE0F87
:10028000FF1FE459FE4FA591B4918FB7F894EC91FC
:10029000111108C0D095DE23DC938FBFDF91CF9181
:1002A0001F910895DE2BF8CFCF93DF9390E0FC01F0
:1002B000EC56FE4F249180589E4FFC018491882378
:1002C000D1F090E0880F991FFC01EE59FE4FA591E7
:1002D000B491FC01E459FE4FC591D49161110EC057
:1002E0009FB7F8948C91E22FE0958E238C93288110
:1002F000E223E8839FBFDF91CF9108958FB7F894F1
:10030000EC91E22BEC938FBFF6CF3FB7F89480913E
:100310003E0190913F01A0914001B091410126B56D
:10032000A89B05C02F3F19F00196A11DB11D3FBF2D
:10033000BA2FA92F982F8827BC01CD01620F711DFC
:10034000811D911D42E0660F771F881F991F4A95F6
:10035000D1F708958F929F92AF92BF92CF92DF9282
:10036000EF92FF924B015C010E9485016B017C01C1
:100370000E9485016C197D098E099F09683E7340B2
:1003800081059105A8F321E0821A9108A108B1081E
:1003900088EEC80E83E0D81EE11CF11C8114910484
:1003A000A104B10429F7FF90EF90DF90CF90BF90A8
:1003B000AF909F908F900895EF92FF921F93CF93ED
:1003C000DF937C01162F61E08EE00E94260160E041
:1003D0008FE00E942601D0E0C0E0B7018C2F0C2EE8
:1003E00002C0759567950A94E2F761700E94260134
:1003F0002196C830D10589F760E088E00E94260187
:100400006AE070E080E090E00E94AA0161E088E08C
:100410000E94260160E08EE00E94260160E08FE0ED
:100420000E942601612F86E00E94260161E087E09C
:100430000E94260160E088E00E9426016AE070E0E8
:1004400080E090E00E94AA0161E088E00E9426011D
:10045000612F86E00E94260160E087E00E9426016D
:1004600060E088E00E9426016AE070E080E090E0B1
:100470000E94AA0161E088E0DF91CF911F91FF9077
:10048000EF900C94260180E390E09093010180931B
:1004900000011092460110924701109248011092FB
:1004A00049011092420110924301109244011092AE
:1004B000450181E08093020110924D0110924C01A0
:1004C00010924B0110924A0108950F931F93CF93FE
:1004D000DF938C01D0E0C0E0D80114968D919C91FF
:1004E0001597C817D90720F4ED91FC91309701F5C5
:1004F00010923801E8E3F1E0808161E070E0082EBD
:10050000000C990B0E94DC0161E070E080E090E05B
:100510000E94AA012196C830D105F1F60E9443023B
:1005200081E080934F01DF91CF911F910F9108954A
:10053000EC0FFD1FE1CFFC0180819181009711F04C
:100540000C948C0C0895EF92FF920F931F93CF930E
:10055000DF93EC017B018A0188819981009729F062
:100560002A813B812417350788F4B8016F5F7F4FDC
:100570000E94150D009791F0998388831B830A834D
:100580002C813D81232B11F4FC0110821D830C83EF
:10059000B701888199810E94DB0D0CC08881998107
:1005A000009711F00E948C0C198218821D821C8207
:1005B0001B821A82CE01DF91CF911F910F91FF9084
:1005C000EF900895EF92FF920F931F93CF93DF93D5
:1005D000CDB7DEB7A1970FB6F894DEBF0FBECDBF83
:1005E0007C01CB01BA01F7011182108213821282C1
:1005F000158214828E010F5F1F4F22E044E00E949B
:1006000061070097C9F0FC0101900020E9F73197DC
:10061000AF01481B590BBC01C7010E94A302A19660
:100620000FB6F894DEBF0FBECDBFDF91CF911F9103
:100630000F91FF90EF900895F701808191810097CD
:1006400011F00E948C0CF701118210821582148225
:1006500013821282E4CFFB01DC0111961C921E92E0
:1006600013961C921E92129715961C921E92149726
:100670008617970749F0608171816115710521F036
:10068000448155810C94A30208951F920F920FB6D6
:100690000F9211242F933F938F939F93AF93BF9308
:1006A00080913A0190913B01A0913C01B0913D01B4
:1006B0003091390123E0230F2D3758F50196A11D04
:1006C000B11D2093390180933A0190933B01A0938F
:1006D0003C01B0933D0180913E0190913F01A0917A
:1006E0004001B09141010196A11DB11D80933E01D1
:1006F00090933F01A0934001B0934101BF91AF910E
:100700009F918F913F912F910F900FBE0F901F904F
:10071000189526E8230F0296A11DB11DD2CFCF93C5
:10072000DF93CDB7DEB72E970FB6F894DEBF0FBEBE
:10073000CDBF789484B5826084BD84B5816084BD6A
:1007400085B5826085BD85B5816085BD80916E006F
:10075000816080936E0010928100809181008260A0
:1007600080938100809181008160809381008091DD
:1007700080008160809380008091B10084608093CC
:10078000B1008091B00081608093B00080917A00C8
:10079000846080937A0080917A00826080937A00EE
:1007A00080917A00816080937A0080917A008068DD
:1007B00080937A001092C10061E080E00E945401B1
:1007C00061E081E00E94540161E082E00E945401F6
:1007D00061E083E00E94540161E084E00E945401E2
:1007E00061E085E00E94540161E086E00E945401CE
:1007F00061E087E00E94540161E08EE00E945401B4
:1008000061E08FE00E94540161E089E00E945401A0
:1008100061E088E00E94540122242394312C30E3CB
:10082000632E712C80915201811165C061E089E0D5
:100830000E94260161E088E00E94260161E08EE0CE
:100840000E94260161E08FE00E94260161E087E0BE
:100850000E94260160E086E00E94260160E085E0BB
:100860000E94260160E084E00E94260161E083E0AE
:100870000E94260160E082E00E94260160E081E0A3
:100880000E94260160E080E00E94260160E088E08E
:100890000E9426016AE070E080E090E00E94AA01D8
:1008A00061E088E00E94260170E060E088E390E06B
:1008B0000E94DC016EE170E080E090E00E94AA01FD
:1008C00070E060E08EE090E00E94DC016EE170E09C
:1008D00080E090E00E94AA0170E060E081E090E09A
:1008E0000E94DC016EE170E080E090E00E94AA01CD
:1008F00081E08093520189E091E09E878D87512CA1
:1009000060E08EE00E94260161E08FE00E942601F7
:1009100060E088E00E94260161E070E080E090E005
:100920000E94AA0161E088E00E94260160E0852D16
:100930000E94260160E088E00E94260161E070E0EC
:1009400080E090E00E94AA0161E088E00E94260118
:10095000F12CE12C60E084E00E94540160E085E02D
:100960000E94540160E086E00E94540160E087E04C
:100970000E94540160E089E00E942601F701E455DD
:10098000FE4F8491F701E856FE4F1491F701EC57A2
:10099000FE4F0491002309F475C081110E94FD00EF
:1009A000E02FF0E0EE0FFF1FEA58FE4FA591B49143
:1009B000EC911E2391E080E009F490E0092F182FBC
:1009C00010935101009350016AE070E080E090E0E4
:1009D0000E94AA0161E089E00E94260161E084E0B2
:1009E0000E94540161E085E00E94540161E086E0CC
:1009F0000E94540161E087E00E945401012B09F03C
:100A0000E6C180914F01882381F080914E018111D0
:100A10000CC070E060E081E090E00E94DC016EE1DB
:100A200070E080E090E00E94AA01F701EE0FFF1F46
:100A30008D859E85E80FF91FC080D18096012D52CB
:100A4000310981E02330310508F080E091E0960122
:100A50002A5231092230310508F090E0892B29F41F
:100A60009DE3C916D10409F0CBC18EE2C816D104AA
:100A700061F470E060E081E090E00E94DC010E949F
:100A8000430228C010E000E09BCF9DE3C916D104CB
:100A900009F073C180910201882309F43EC01A82D3
:100AA00019821C821B821E821D8245E050E069E291
:100AB00071E0CE0101960E94A302CE0101960E9430
:100AC0006502CE0101960E949B020E94430281E0D2
:100AD00080934F0161E0852D0E94260160E088E04F
:100AE0000E94260161E070E080E090E00E94AA018F
:100AF00061E088E00E94260153948D859E850896CA
:100B00009E878D8794E05912FBCE80E090E0892B80
:100B100009F488CE0E94000085CE61E070E08DE38C
:100B200090E00E94DC0120914A0130914B018091BC
:100B30004E018823B1F02115310599F410924E0130
:100B40008091460190914701A0914801B0914901DF
:100B5000B0588093460190934701A0934801B09309
:100B6000490180914E018823F1F021303105D9F4FB
:100B700010924E0110924D0110924C0110924B01B7
:100B800010924A018091420190914301A091440149
:100B9000B0914501B0588093420190934301A093D6
:100BA0004401B093450180910001909101018B9720
:100BB00059F52091420130914301409144015091F7
:100BC00045016091460170914701809148019091E3
:100BD00049010E94120BAB01BC01CE0107960E9495
:100BE000E202BE01695F7F4FCE0101960E942B0396
:100BF000CE0101960E946502CE0101960E949B02E1
:100C0000CE0107960E949B02809100019091010104
:100C10008A9759F520914201309143014091440156
:100C200050914501609146017091470180914801C2
:100C3000909149010E941C0AAB01BC01CE010796AC
:100C40000E94E202BE01695F7F4FCE0101960E94C1
:100C50002B03CE0101960E946502CE0101960E94EF
:100C60009B02CE0107960E949B0280910001909109
:100C700001018D9759F52091420130914301409136
:100C80004401509145016091460170914701809166
:100C90004801909149010E94110BAB01BC01CE01AA
:100CA00007960E94E202BE01695F7F4FCE01019666
:100CB0000E942B03CE0101960E946502CE0101968F
:100CC0000E949B02CE0107960E949B028091000128
:100CD000909101018F9709F0D2CEC0904201D0903F
:100CE0004301E0904401F090450120E030E0A9018B
:100CF000C701B6010E94B609811119C01A82198272
:100D00001C821B821E821D8247E050E06FE271E070
:100D1000CE0101960E94A302CE0101960E946502B7
:100D2000CE0101960E949B020E944302A8CEA70119
:100D30009601609146017091470180914801909120
:100D400049010E947E0BAB01BC01CE0107960E94B7
:100D5000E202BE01695F7F4FCE0101960E942B0324
:100D6000CE0101960E946502CE0101960E949B026F
:100D7000CE0107960E949B0282CEA0904C01B090BB
:100D80004D018DE2C816D10459F591E0A916B104C0
:100D900069F461E070E08DE290E00E94DC01B092C5
:100DA0004B01A0924A0181E080934E0180910201A3
:100DB0008823B1F061E070E08DE290E00E94DC01F8
:100DC000709201016092000181E080934E018FEFEB
:100DD000E81AF80A94E0E916F10409F0BBCD7ACEDE
:100DE000AB28A9F7D0920101C092000161E070E048
:100DF000C6010E94DC0130924D0120924C01E7CFE8
:100E000061E070E0C6010E94DC01109202011092C4
:100E10004F0180910001909101010D2C000CEE0812
:100E2000FF0820E030E040E251E4C09729F56091EE
:100E300046017091470180914801909149010E94BB
:100E40001C0A4B015C01C701B6010E94BD099B0150
:100E5000AC01C501B4010E94120B20E030E040E477
:100E600052E40E94110B60934601709347018093F6
:100E70004801909349012ECE609142017091430147
:100E800080914401909145010E941C0A4B015C0134
:100E9000C701B6010E94BD099B01AC01C501B401A7
:100EA0000E94120B20E030E040E452E40E94110B5B
:100EB00060934201709343018093440190934501F4
:100EC00009CEEF920F931F93CF93DF93E80134E0A5
:100ED00047FD34E1042E000C550B57FF03C051951C
:100EE00041955109E32E022F242FAE010E947F0766
:100EF000CE01DF91CF911F910F91EF900895A9E05E
:100F0000B0E0E5E8F7E00C94E00A6A01F22EB02EBA
:100F1000102FFBE3AF2EA01608F41BE31F5F012F79
:100F200027E0AE014F5F5F4F0E94DE08BC01898160
:100F3000982F9970913009F43FC09BE2E1FC04C006
:100F40009E2D9170E0FC3AC05E2D5071E82FE87044
:100F500083FF46C084E0911101C083E0EF2DE81BC0
:100F60008F1508F0E0E0D6018E2F20E2552351F1D5
:100F7000992329F0D6019C93C60101966C01960134
:100F80002D5F3F4FE2FE24C08EE4D6018C9391E4A6
:100F900011969C93119712968C93D9018E2F90E203
:100FA00081111BC0E20FF32FF11D10828EEF9FEF16
:100FB0002996ECE00C94FC0A9DE2C6CF90E2C4CFE7
:100FC0002D9381508111FCCFCE0ED11CE0E0D0CF0B
:100FD0008EE6D6018C9391E6DBCF9D938150E0CFD6
:100FE000482F447082FF3DC084E0911101C083E02E
:100FF0008F1510F4EF2DE81BD6018E2F20E255231C
:1010000009F1992329F0D6019C93C60101966C0140
:1010100096012D5F3F4FE2FE1BC089E4D6018C9301
:101020008EE411968C93119786E412968C93D901D5
:101030008E2F90E2882309F4B5CF9D938150FACF8B
:101040002D9381508111FCCFCE0ED11CE0E0D9CF81
:1010500089E6D6018C938EE611968C93119786E6DD
:10106000E4CF9B0177FF02C030E020E0A1E0B0E0D8
:10107000911102C0B0E0A0E0F9013196AE0FBF1FA0
:101080008B2C912CBB2009F461C05401EFEFAE1AF8
:10109000BE0AAA0DBB1DFA161B0619F014F04F2D3F
:1010A0004A1B511188C0E3FC59C07601A42FB0E25D
:1010B000A1114FC0C40ED11C992309F45BC040E0BC
:1010C000D6011196F60190836D01552309F448C0AD
:1010D000012F060F9A81582F507184FF03C091335E
:1010E00009F4015010160CF047C0093008F008E070
:1010F000EEE2FE2E5B01A01AB10885019194819465
:1011000091082F3F320729F4D601FC92F60131965F
:101110006F016217730794F1021713077CF5DB0167
:10112000A21BB30BAA24A394B12CAC0EBD1EAA0D16
:10113000BB1D11968C9121503109D60111962815AD
:101140003905F4F0F60180836D01DBCFB12CA12CC1
:10115000A0CFF701B1937F01A150AACF9111B0CFD9
:10116000D601942F50E302C05D9391509111FCCFB2
:10117000C40ED11C40E0ACCF01E0BACF80E3DBCF9E
:101180006217730731F4963388F4953311F45523BD
:1011900069F0F6018083FD01842F90E2811108C07F
:1011A000A40FB11D1C9290E080E002CF81E3F1CF4B
:1011B00091938150F3CF911183CF8ACF283008F0DB
:1011C00027E03327DA01990F311D87FD91600096E2
:1011D0006105710539F432602E5F3D9330E32A9545
:1011E000E1F708959F3F30F080387105610509F0FF
:1011F0003C5F3C5F3D93913008F08068911DDF9328
:10120000CF931F930F93FF92EF92192F987F96958C
:10121000E92F96959695E90FFF27EE53FF4F9927F3
:101220003327EE24FF24A701E701059008940794D3
:1012300028F4360FE71EF81E491F511D660F771F51
:10124000881F991F0694A1F70590079428F4E70ECC
:10125000F81E491F561FC11D770F881F991F661F53
:101260000694A1F70590079428F4F80E491F561F1D
:10127000C71FD11D880F991F661F771F0694A1F7FE
:101280000590079420F4490F561FC71FD81F990FC8
:10129000661F771F881F0694A9F784911095177011
:1012A00041F0D695C79557954795F794E7941A95C9
:1012B000C1F7E8E6F0E068941590159135916591D5
:1012C000959105907FE27395E118F10A430B560B57
:1012D000C90BD009C0F7E10CF11E431F561FC91FEF
:1012E000D01D7EF4703311F48A95E6CFE894015056
:1012F00030F0080F0AF40027021708F4202F239576
:10130000022F7A3328F079E37D932A95E9F710C00C
:101310007D932A9589F60694979567953795179545
:101320001794E118F10A430B560BC90BD00998F03A
:1013300023957E9173957A3308F070E37C932013A4
:10134000B8F77E9170617D9330F0839571E37D9362
:1013500070E32A95E1F71124EF90FF900F911F9110
:10136000CF91DF91992787FD909508950E94F80904
:1013700008F481E00895E89409C097FB3EF4909545
:101380008095709561957F4F8F4F9F4F9923A9F05E
:10139000F92F96E9BB279395F695879577956795ED
:1013A000B795F111F8CFFAF4BB0F11F460FF1BC031
:1013B0006F5F7F4F8F4F9F4F16C0882311F096E9C4
:1013C00011C0772321F09EE8872F762F05C0662372
:1013D00071F096E8862F70E060E02AF09A95660F2B
:1013E000771F881FDAF7880F9695879597F90895E4
:1013F000990F0008550FAA0BE0E8FEEF1616170626
:10140000E807F907C0F012161306E407F50798F08D
:10141000621B730B840B950B39F40A2661F0232BA6
:10142000242B252B21F408950A2609F4A140A69522
:101430008FEF811D811D08950E942F0A0C94A00A30
:101440000E94920A38F00E94990A20F0952311F028
:101450000C94890A0C948F0A11240C94D40A0E94CB
:10146000B10A70F3959FC1F3950F50E0551F629F2D
:10147000F001729FBB27F00DB11D639FAA27F00DED
:10148000B11DAA1F649F6627B00DA11D661F829F14
:101490002227B00DA11D621F739FB00DA11D621FF9
:1014A000839FA00D611D221F749F3327A00D611D16
:1014B000231F849F600D211D822F762F6A2F1124F8
:1014C0009F5750409AF0F1F088234AF0EE0FFF1F2B
:1014D000BB1F661F771F881F91505040A9F79E3F82
:1014E000510580F00C94890A0C94D40A5F3FE4F310
:1014F000983ED4F3869577956795B795F795E795D8
:101500009F5FC1F7FE2B880F911D9695879597F9E0
:10151000089597F99F6780E870E060E008959FEF75
:1015200080EC089500240A9416161706180609067A
:10153000089500240A941216130614060506089549
:10154000092E0394000C11F4882352F0BB0F40F4D1
:10155000BF2B11F460FF04C06F5F7F4F8F4F9F4F11
:10156000089557FD9058440F551F59F05F3F71F093
:101570004795880F97FB991F61F09F3F79F08795FA
:101580000895121613061406551FF2CF4695F1DF83
:1015900008C0161617061806991FF1CF8695710513
:1015A000610508940895E894BB2766277727CB0147
:1015B00097F908952F923F924F925F926F927F9288
:1015C0008F929F92AF92BF92CF92DF92EF92FF9253
:1015D0000F931F93CF93DF93CDB7DEB7CA1BDB0BFF
:1015E0000FB6F894DEBF0FBECDBF09942A883988A4
:1015F00048885F846E847D848C849B84AA84B984AB
:10160000C884DF80EE80FD800C811B81AA81B981B6
:10161000CE0FD11D0FB6F894DEBF0FBECDBFED01CA
:1016200008955058BB27AA270E94290B0C94A00AA2
:101630000E94920A38F00E94990A20F039F49F3FE4
:1016400019F426F40C948F0A0EF4E095E7FB0C9441
:10165000890AE92F0E94B10A58F3BA176207730783
:101660008407950720F079F4A6F50C94D30A0EF4BC
:10167000E0950B2EBA2FA02D0B01B90190010C01A2
:10168000CA01A0011124FF27591B99F0593F50F4BA
:10169000503E68F11A16F040A22F232F342F442712
:1016A000585FF3CF469537952795A795F04053950A
:1016B000C9F77EF41F16BA0B620B730B840BBAF0DA
:1016C0009150A1F0FF0FBB1F661F771F881FC2F745
:1016D0000EC0BA0F621F731F841F48F48795779559
:1016E0006795B795F7959E3F08F0B0CF9395880F13
:1016F00008F09927EE0F9795879508950E94920B11
:101700000C94A00A0E94990A58F00E94920A40F094
:1017100029F45F3F29F00C94890A51110C94D40AE2
:101720000C948F0A0E94B10A68F39923B1F35523F0
:1017300091F3951B550BBB27AA27621773078407E4
:1017400038F09F5F5F4F220F331F441FAA1FA9F37A
:1017500035D00E2E3AF0E0E832D091505040E69568
:10176000001CCAF72BD0FE2F29D0660F771F881FC9
:10177000BB1F261737074807AB07B0E809F0BB0BBC
:10178000802DBF01FF2793585F4F3AF09E3F5105D0
:1017900078F00C94890A0C94D40A5F3FE4F3983EE5
:1017A000D4F3869577956795B795F7959F5FC9F7B9
:1017B000880F911D9695879597F90895E1E0660F3A
:1017C000771F881FBB1F621773078407BA0720F0B3
:1017D000621B730B840BBA0BEE1F88F7E09508951C
:1017E0000F931F93CF93DF938230910510F482E023
:1017F00090E0E0915501F091560130E020E0B0E03A
:10180000A0E0309799F42115310509F44AC0281B4E
:10181000390B24303105D8F58A819B81611571051A
:1018200089F1FB0193838283FE0111C040815181C4
:101830000281138148175907E0F04817590799F4B6
:10184000109761F012960C93129713961C93329690
:10185000CF01DF91CF911F910F9108950093550112
:1018600010935601F4CF2115310551F0421753075B
:1018700038F0A901DB019A01BD01DF01F801C1CFF8
:10188000EF01F9CF9093560180935501CDCFFE0122
:10189000E20FF31F819391932250310939832883FA
:1018A000D7CF2091530130915401232B41F4209143
:1018B000050130910601309354012093530120918A
:1018C0000301309104012115310541F42DB73EB7D4
:1018D0004091070150910801241B350BE091530101
:1018E000F0915401E217F307A0F42E1B3F0B2817C9
:1018F000390778F0AC014E5F5F4F2417350748F089
:101900004E0F5F1F50935401409353018193919365
:101910009FCFF0E0E0E09CCFCF93DF930097E9F01A
:10192000FC01329713821282A0915501B0915601A9
:10193000ED0130E020E01097A1F420813181820F89
:10194000931F20915301309154012817390709F052
:1019500061C0F0935401E0935301DF91CF9108955A
:10196000EA01CE17DF07E8F54A815B819E01411548
:101970005105B1F7E901FB83EA8349915991C40FFD
:10198000D51FEC17FD0761F4808191810296840FC9
:10199000951FE90199838883828193819B838A8340
:1019A000F0E0E0E012968D919C9113970097B9F5C5
:1019B0002D913C911197CD010296820F931F20919A
:1019C0005301309154012817390739F6309751F5F2
:1019D0001092560110925501B0935401A0935301F7
:1019E000BCCFD383C28340815181840F951FC81718
:1019F000D90761F44E5F5F4F88819981480F591F65
:101A0000518340838A819B81938382832115310591
:101A100009F0B0CFF0935601E09355019ECFFD0140
:101A2000DC01C0CF13821282D7CFB0E0A0E0EBE19F
:101A3000FDE00C94DC0A8C01009751F4CB010E946C
:101A4000F00B8C01C801CDB7DEB7E0E10C94F80AC9
:101A5000FC01E60FF71F9C0122503109E217F30742
:101A600008F49DC0D901CD91DC911197C617D70715
:101A700098F0C530D10530F3CE010497861797074B
:101A800008F3C61BD70B2297C193D1936D937C9318
:101A9000CF010E948C0CD6CF5B01AC1ABD0A4C0161
:101AA0008C0E9D1EA0915501B0915601512C412CD8
:101AB000F12CE12C109731F5809153019091540154
:101AC0008815990509F05CC04616570608F058C0FD
:101AD0008091030190910401009741F48DB79EB766
:101AE0004091070150910801841B950BE817F907F5
:101AF00008F055C0F0935401E0935301F90171834C
:101B00006083A0CF8D919C91119712966C90129743
:101B100013967C901397A815B90559F56C0142E00E
:101B2000C40ED11CCA14DB0420F1AC014A195B09B4
:101B3000DA011296159780F0628273825183408396
:101B4000D9016D937C93E114F10471F0D7011396E0
:101B5000FC93EE93129776CF22968C0F9D1FF9017E
:101B600091838083F301EFCFF0935601E093550109
:101B700069CF4816590608F42C017D01D3019ACF8C
:101B8000CB010E94F00B7C01009749F0AE01B80137
:101B90000E94D20DC8010E948C0C870153CF10E027
:101BA00000E050CFFB01DC0102C001900D924150DA
:101BB0005040D8F70895FB01DC0101900D92002000
:081BC000E1F70895F894FFCF4E
:101BC8003000010000570180003700380039002F2D
:101BD800003400350036002A003100320033002D71
:101BE800002E0030003D002B004552524F52004954
:081BF8006E76616C6964000067
:00000001FF
